:100000000C9434000C9451000C9451000C94510049
:100010000C9451000C9451000C9451000C9451001C
:100020000C9451000C9451000C9451000C9451000C
:100030000C9451000C9451000C9451000C945100FC
:100040000C9451000C9451000C94C9000C940901BB
:100050000C9451000C9451000C9451000C945100DC
:100060000C9451000C94510011241FBECFEFD8E026
:10007000DEBFCDBF11E0A0E0B1E0E8ECF9E002C0E6
:1000800005900D92A432B107D9F715E0A4E2B1E0D2
:1000900001C01D92A237B107E1F70E944B010C94F9
:1000A000E2040C94000027E030E090E0AC01022E66
:1000B00002C0559547950A94E2F740FD02C02B987F
:1000C00001C02B9A2D982D9A215030404FEF2F3F91
:1000D000340761F7089510922505109224051092B7
:1000E0002705109226051092690510926805109256
:1000F0006B0510926A051092C50087E68093C400D4
:1001000086E08093C20088E18093C10078940895CE
:100110001F93182F8A3019F48DE00E9488002091D7
:10012000260530912705C901019660E072E00E9422
:10013000BE0140912405509125058417950781F053
:10014000F901EE0FFF1FEC5DFE4F108311829093BB
:100150002705809326058091C10080628093C100AD
:1001600080E090E01F910895809168059091690565
:10017000019660E270E00E94BE0190936905809351
:100180006805FC01EE0FFF1FE85DFA4F8081918149
:1001900008951F920F920FB60F9211242F933F9341
:1001A0004F935F936F937F938F939F93AF93BF937F
:1001B000EF93FF9320916A0530916B05C901019679
:1001C00060E270E00E94BE014091680550916905AF
:1001D0008417950769F04091C600F901EE0FFF1FE3
:1001E000E85DFA4F4083118290936B0580936A0516
:1001F000FF91EF91BF91AF919F918F917F916F91FF
:100200005F914F913F912F910F900FBE0F901F90D4
:1002100018951F920F920FB60F9211242F933F93B0
:100220005F936F937F938F939F93AF93BF93EF935E
:10023000FF938091240590912505019660E072E07E
:100240000E94BE0120912605309127058217930751
:1002500069F0FC01EE0FFF1FEC5DFE4F2081209343
:10026000C600909325058093240505C08091C100A8
:100270008F7D8093C100FF91EF91BF91AF919F91CE
:100280008F917F916F915F913F912F910F900FBE52
:100290000F901F901895CF93DF93CDB7DEB761977E
:1002A0000FB6F894DEBF0FBECDBF229A259A239ACF
:1002B0000E946B0086E191E090936F0580936E053C
:1002C00088E091E090936D0580936C058AEA0E9426
:1002D000530080EF0E9453002A982A9A80E593ECFD
:1002E00020E931E0F9013197F1F70197D9F700E002
:1002F00010E07E010894E11CF11C80E0C82E81E032
:10030000D82E90E9A92E91E0B92EC801B70142E09C
:1003100050E00E94E50100D000D000D0EDB7FEB75C
:100320003196ADB7BEB71296DC92CE921197F3829A
:10033000E282158304830E9406028DB79EB706965B
:100340000FB6F8949EBF0FBE8DBF812F0E94530041
:10035000802F0E9453002A982A9A24EF31E0C50189
:100360000197F1F721503040D1F70F5F1F4F9FEFFA
:100370000F3F190751F600E010E0C7CF97FB092E99
:1003800007260AD077FD04D00CD006D000201AF43E
:10039000709561957F4F0895F6F7909581959F4FE1
:1003A0000895AA1BBB1B51E107C0AA1FBB1FA617BC
:1003B000B70710F0A61BB70B881F991F5A95A9F70E
:1003C00080959095BC01CD010895FB019F01E894B3
:1003D0004230C4F04532B4F44A3029F497FB1EF49D
:1003E000909581959F4F642F77270E94D101805D62
:1003F0008A330CF0895D8193CB010097A1F716F445
:100400005DE251931082C9010C941104A0E0B0E0A8
:10041000ECE0F2E00C94BB04FE0135966191719121
:1004200080916E0590916F05AF010E941B0220968E
:10043000E2E00C94D704ADE0B0E0E1E2F2E00C942D
:10044000AB043C017D876C875A01FC011782168240
:10045000838181FFCAC13FE3C32E2E010894411C52
:10046000511CF3019381EC85FD8593FD859193FFEC
:100470008191FD87EC87882309F4B3C1853241F46B
:1004800093FD859193FF8191FD87EC87853229F457
:1004900090E0B3010E942104E4CFEE24DD2410E0BB
:1004A0001032B0F48B3269F08C3228F4803251F083
:1004B000833271F40BC08D3239F0803349F411600E
:1004C0002CC01260146029C0186027C0106125C0BC
:1004D00017FD2EC0282F20532A3098F416FF08C08D
:1004E0008E2D880FE82EEE0CEE0CE80EE20E15C0F5
:1004F0008D2D880FD82EDD0CDD0CD80ED20E10629B
:100500000CC08E3221F416FD6CC1106406C08C360E
:1005100011F4106802C0883659F4EC85FD8593FD0E
:10052000859193FF8191FD87EC87882309F0B8CFEF
:10053000982F9554933018F09052933030F424E073
:1005400030E0A20EB31EC9820FC0833631F083376C
:1005500081F0833509F05AC022C0F501808189837A
:1005600022E030E0A20EB31E21E0E22EF12C420187
:1005700014C092E0292E312C2A0C3B1CF5018080FE
:10058000918016FF03C06E2D70E002C06FEF7FEF09
:10059000C4010E9406047C0151011F7715C082E04E
:1005A000282E312C2A0C3B1CF5018080918016FFEF
:1005B00003C06E2D70E002C06FEF7FEFC4010E9498
:1005C000FB037C011068510113FD1CC006C080E2D2
:1005D00090E0B3010E942104DA948D2D90E0E8169A
:1005E000F906A8F30FC0F40117FD859117FF81915B
:1005F0004F0190E0B3010E942104D110DA940894D5
:10060000E108F108E114F10471F7E8C0843611F053
:10061000893659F5F50117FF07C080819181A281C4
:10062000B38124E030E009C060817181CB01AA2749
:1006300097FDA095BA2F22E030E0A20EB31E012F45
:100640000F76B7FF08C0B095A095909581959F4F04
:10065000AF4FBF4F0068BC01CD01A2012AE030E0DE
:100660000E944D04F82EF4183FC0853721F41F7EF8
:100670002AE030E020C0197F8F36A9F0803720F4BF
:10068000883509F0AEC00BC0803721F0883709F0FB
:10069000A8C001C0106114FF09C0146007C014FF96
:1006A00008C0166006C028E030E005C020E130E058
:1006B00002C020E132E0F50117FF07C060817181BF
:1006C0008281938144E050E006C06081718180E0C6
:1006D00090E042E050E0A40EB51EA2010E944D043D
:1006E000F82EF418012F0F7706FF09C00E7FFE14B5
:1006F00030F404FF06C002FD04C00F7E02C01F2DAF
:1007000001C01E2D802F90E004FF0CC0FE01EF0DF4
:10071000F11D2081203311F4097E09C002FF06C0BB
:100720001E5F05C086789070009709F01F5F802ECD
:10073000992403FD12C000FF0DC0EF2C1D1550F4CD
:10074000ED0CE11A1D2D06C080E290E0B3010E947D
:1007500021041F5F1D15C0F304C01D1510F4D11A2C
:1007600001C0DD2484FE0FC080E390E0B3010E944D
:10077000210482FE1FC081FE03C088E590E010C006
:1007800088E790E00DC0C40186789070009791F0E2
:1007900081FC02C080E201C08BE207FD8DE290E0A7
:1007A000B3010E94210406C080E390E0B3010E94DF
:1007B0002104EA94FE14C0F3FA94F201EF0DF11D46
:1007C000808190E0B3010E942104FF20A9F706C0B8
:1007D00080E290E0B3010E942104DA94DD20C1F7A9
:1007E00040CEF3018681978102C08FEF9FEF2D9657
:1007F000E2E10C94C704FC010590615070400110C7
:10080000D8F7809590958E0F9F1F0895FC01615039
:10081000704001900110D8F7809590958E0F9F1F22
:100820000895DC01FC01672F71917723E1F732977E
:1008300004C07C916D9370836291AE17BF07C8F3BB
:1008400008950F931F93CF93DF938C01EB018B815E
:1008500081FF1BC082FF0DC02E813F818C819D8155
:100860002817390764F4E881F9810193F983E88353
:1008700006C0E885F985802F0995009731F48E81AF
:100880009F8101969F838E8302C00FEF1FEFC801E7
:10089000DF91CF911F910F910895FA01AA27283077
:1008A00051F1203181F1E8946F936E7F6E5F7F4F3D
:1008B0008F4F9F4FAF4FB1E03ED0B4E03CD0670FB9
:1008C000781F891F9A1FA11D680F791F8A1F911D0C
:1008D000A11D6A0F711D811D911DA11D20D009F45C
:1008E00068943F912AE0269F11243019305D31939E
:1008F000DEF6CF010895462F4770405D4193B3E087
:100900000FD0C9F7F6CF462F4F70405D4A3318F02D
:10091000495D31FD4052419302D0A9F7EACFB4E0DE
:10092000A6959795879577956795BA95C9F7009796
:100930006105710508959B01AC010A2E0694579537
:10094000479537952795BA95C9F7620F731F841F8E
:10095000951FA01D08952F923F924F925F926F9224
:100960007F928F929F92AF92BF92CF92DF92EF923F
:10097000FF920F931F93CF93DF93CDB7DEB7CA1BC0
:10098000DB0B0FB6F894DEBF0FBECDBF09942A88EB
:10099000398848885F846E847D848C849B84AA8493
:1009A000B984C884DF80EE80FD800C811B81AA8120
:1009B000B981CE0FD11D0FB6F894DEBF0FBECDBFEB
:0809C000ED010895F894FFCF4A
:1009C8002573202564200A000000000100000000B3
:1009D8000000B400000000000002000000008800D1
:0409E800000000000B
:00000001FF
