:100000000C9434000C9451000C9451000C94510049
:100010000C9451000C9451000C9451000C9451001C
:100020000C9451000C9451000C9451000C9451000C
:100030000C9451000C9451000C947B020C945100D0
:100040000C9451000C9451000C94D7000C9417019F
:100050000C9451000C9451000C9451000C945100DC
:100060000C9451000C94510011241FBECFEFD8E026
:10007000DEBFCDBF11E0A0E0B1E0EAE7FEE002C0E4
:1000800005900D92A035B107D9F713E0A0E5B1E0D6
:1000900001C01D92A63AB107E1F70E945B030C94E0
:1000A0003B070C940000CF93DF9300D0CDB7DEB7B1
:1000B0009A838983898190E002C0959587956A9596
:1000C000E2F781700F900F90DF91CF910895FC01BE
:1000D000208181E090E002C0880F991F6A95E2F7C5
:1000E000442321F48095822380830895282B208344
:1000F00008951092510310925003109253031092DE
:100100005203109295031092940310929703109249
:1001100096031092C50087E68093C40086E0809322
:10012000C20088E18093C100789408951F93182F2E
:100130008A3019F48DE00E9496002091520330918C
:100140005303C901019660E071E00E9448044091A8
:100150005003509151038417950781F0F901EE0F78
:10016000FF1FE05BFE4F1083118290935303809337
:1001700052038091C10080628093C10080E090E0D2
:100180001F9108958091940390919503019660E2E8
:1001900070E00E9448049093950380939403FC01BF
:1001A000EE0FFF1FEC5AFC4F8081918108951F9242
:1001B0000F920FB60F9211242F933F934F935F939B
:1001C0006F937F938F939F93AF93BF93EF93FF931F
:1001D0002091960330919703C901019660E270E087
:1001E0000E94480440919403509195038417950709
:1001F00069F04091C600F901EE0FFF1FEC5AFC4F69
:10020000408311829093970380939603FF91EF911F
:10021000BF91AF919F918F917F916F915F914F911E
:100220003F912F910F900FBE0F901F9018951F9226
:100230000F920FB60F9211242F933F935F936F93FA
:100240007F938F939F93AF93BF93EF93FF9380918F
:10025000500390915103019660E071E00E944804C0
:1002600020915203309153038217930769F0FC01E8
:10027000EE0FFF1FE05BFE4F20812093C60090939E
:1002800051038093500305C08091C1008F7D8093FE
:10029000C100FF91EF91BF91AF919F918F917F919D
:1002A0006F915F913F912F910F900FBE0F901F9014
:1002B000189514BC85B5846085BD8EE387BD82E04A
:1002C00080936E00109298031092990310929A03F3
:1002D00010929B0310929C0310929D0310929E0318
:1002E00010929F0378948FEF84B90895209198031A
:1002F0003091990340919A0350919B0360919C0324
:1003000070919D0380919E0390919F0308952F9279
:100310003F924F925F926F927F928F929F92AF9295
:10032000BF92CF92DF92EF92FF920F931F93CF93E2
:10033000DF930F92CDB7DEB780909803709099034A
:1003400060909A0350909B0340909C0330909D03D3
:1003500020909E0380919F038983282D372D462D61
:10036000552D642D732D822D998102E00E94E102AA
:10037000F22E132FE42ED52EC62EB72EA82E992E90
:1003800005E00E94E102B22FBF19F1E02B1708F03F
:10039000F0E0232F211BE1E0321708F0E0E0022F0C
:1003A0000F1B31E0201708F030E0E32B342F3E190B
:1003B00021E0431708F020E0F32EFE1A41E03F153C
:1003C00008F040E0242B452F4D1931E0541708F078
:1003D00030E0142F121B21E0411708F020E0322BEF
:1003E000462F4C1921E0641708F020E0A42FA31B2E
:1003F00031E04A1708F030E0232B472F4B1931E04A
:10040000741708F030E0E42FE21B21E04E1708F0EB
:1004100020E0322B482F4A1921E0841708F020E011
:10042000F42FF31B81E04F1708F080E0282B991977
:10043000921B2B2F280D31E02B1708F030E0700EA7
:1004400041E0701608F040E0370D81E0371508F004
:1004500080E0482B6F0C51E06F1408F050E0460D1F
:1004600081E0461508F080E0582B510E61E05116EE
:1004700008F060E0550D81E0551508F080E0682B2C
:100480004A0E71E04A1608F070E0640D81E06415D0
:1004900008F080E0782B3E0E81E03E1608F080E008
:1004A000730DE1E0731508F0E0E08E2B2F0EE1E014
:1004B0002F1608F0E0E0820DF1E0821508F0F0E080
:1004C000EF2BA9819A0F9E0F03E00E94E1020F908B
:1004D000DF91CF911F910F91FF90EF90DF90CF9020
:1004E000BF90AF909F908F907F906F905F904F9054
:1004F0003F902F9008951F920F920FB60F921124E4
:100500002F933F934F935F936F937F938F939F931B
:10051000AF93EF93FF9316BC4091980330919903EA
:1005200020919A0390919B0380919C03F0919D03ED
:10053000E0919E03A0919F03642F6F5F51E06417C9
:1005400008F050E0530F41E0531708F040E0420F2D
:1005500031E0421708F030E0390F21E0391708F098
:1005600020E0280F91E0281708F090E09F0F81E02D
:100570009F1708F080E08E0F71E08E1708F070E092
:100580007A0F609398035093990340939A033093A2
:100590009B0320939C0390939D0380939E037093F1
:1005A0009F03FF91EF91AF919F918F917F916F91F9
:1005B0005F914F913F912F910F900FBE0F901F9021
:1005C0001895CF92DF92EF92FF920F93CF93DF9324
:1005D000CDB7DEB760970FB6F894DEBF0FBECDBFC4
:1005E000002309F45AC029873A874B875C876D87B7
:1005F0007E878F87988B80E2801B49855A856B8523
:100600007C851816B4F019821A821B821C829927E5
:1006100087FD9095909581959F4F04C0440F551F7D
:10062000661F771F8A95D2F74D835E836F83788725
:100630002CC06A017B01002E04C0CC0CDD1CEE1C1A
:10064000FF1C0A94D2F7C982DA82EB82FC826A012B
:100650007B0104C0F694E794D794C7948A95D2F7A7
:10066000D701C6014D855E856F85788904C0440F2A
:10067000551F661F771F0A95D2F7842B952BA62B43
:10068000B72B8D839E83AF83B88729813A814B81B5
:100690005C816D817E818F81988560960FB6F8941C
:1006A000DEBF0FBECDBFDF91CF910F91FF90EF90D6
:1006B000DF90CF900895CF93DF9300D0CDB7DEB712
:1006C00052985A9A259A0E9459010E94790082E410
:1006D00091E09093A3038093A20384E391E090932D
:1006E000A1038093A003772400E020E040E0442EA3
:1006F00041E0542E5BE1252E51E0352E01C0212F23
:1007000089B189831A82898190E09595879595951D
:100710008795182F1170121759F10E94760149011F
:100720005A016B017C018DB79EB70C970FB6F894F8
:100730009EBF0FBE8DBFEDB7FEB73196ADB7BEB74A
:1007400012965C924E921197128313828482958244
:10075000A682B782C086D186E286F3860E946F04A5
:100760008DB79EB70C960FB6F8949EBF0FBE8DBF87
:100770000E947601E22FE819F1E02E1708F0F0E070
:10078000A32FA91921E03A1708F020E03A2F3F1BC8
:10079000F1E0A31708F0F0E02F2BA42FAA19F1E045
:1007A0004A1708F0F0E04A2F421B21E0A41708F096
:1007B00020E0F22BA52FAB1921E05A1708F020E01A
:1007C0005A2F5F1BF1E0A51708F0F0E02F2BA62FA2
:1007D000AC19F1E06A1708F0F0E06A2F621B21E023
:1007E000A61708F020E0F22B272F2D19A1E0721791
:1007F00008F0A0E0722F7F1BF1E0271708F0F0E06F
:10080000AF2BF82FFE1921E08F1708F020E08F2F73
:100810008A1BA1E0F81708F0A0E02A2B9F19921775
:1008200071F4882361F4772351F4662341F455234E
:1008300031F4442321F4332311F4EB3008F0012F79
:10084000071509F45CCFADB7BEB71C970FB6F89487
:10085000BEBF0FBEADBFEDB7FEB7319612963C924C
:100860002E9211970283138284829582A682B78288
:10087000C086D186E286F3860E946F048DB79EB74C
:100880000C960FB6F8949EBF0FBE8DBF702E37CF5B
:1008900097FB092E07260AD077FD04D00CD006D08E
:1008A00000201AF4709561957F4F0895F6F79095A2
:1008B00081959F4F0895AA1BBB1B51E107C0AA1F3A
:1008C000BB1FA617B70710F0A61BB70B881F991FF1
:1008D0005A95A9F780959095BC01CD010895A0E0A7
:1008E000B0E0E5E7F4E00C941407FE013596619161
:1008F00071918091A2039091A303AF010E9484049F
:100900002096E2E00C943007ADE0B0E0EAE8F4E0D5
:100910000C9404073C017D876C875A01FC01178207
:100920001682838181FFCAC13FE3C32E2E01089442
:10093000411C511CF3019381EC85FD8593FD85914C
:1009400093FF8191FD87EC87882309F4B3C1853239
:1009500041F493FD859193FF8191FD87EC8785326A
:1009600029F490E0B3010E947A06E4CFEE24DD245E
:1009700010E01032B0F48B3269F08C3228F48032FF
:1009800051F0833271F40BC08D3239F0803349F469
:1009900011602CC01260146029C0186027C010615B
:1009A00025C017FD2EC0282F20532A3098F416FF9B
:1009B00008C08E2D880FE82EEE0CEE0CE80EE20E2D
:1009C00015C08D2D880FD82EDD0CDD0CD80ED20E63
:1009D00010620CC08E3221F416FD6CC1106406C08A
:1009E0008C3611F4106802C0883659F4EC85FD8508
:1009F00093FD859193FF8191FD87EC87882309F012
:100A0000B8CF982F9554933018F09052933030F41B
:100A100024E030E0A20EB31EC9820FC0833631F04D
:100A2000833781F0833509F05AC022C0F5018081F7
:100A3000898322E030E0A20EB31E21E0E22EF12CE9
:100A4000420114C092E0292E312C2A0C3B1CF501E6
:100A50008080918016FF03C06E2D70E002C06FEFA2
:100A60007FEFC4010E946F067C0151011F7715C002
:100A700082E0282E312C2A0C3B1CF50180809180CD
:100A800016FF03C06E2D70E002C06FEF7FEFC40150
:100A90000E9464067C011068510113FD1CC006C051
:100AA00080E290E0B3010E947A06DA948D2D90E006
:100AB000E816F906A8F30FC0F40117FD859117FF9A
:100AC00081914F0190E0B3010E947A06D110DA942F
:100AD0000894E108F108E114F10471F7E8C08436E4
:100AE00011F0893659F5F50117FF07C08081918112
:100AF000A281B38124E030E009C060817181CB0123
:100B0000AA2797FDA095BA2F22E030E0A20EB31ECF
:100B1000012F0F76B7FF08C0B095A09590958195ED
:100B20009F4FAF4FBF4F0068BC01CD01A2012AE02B
:100B300030E00E94A606F82EF4183FC0853721F455
:100B40001F7E2AE030E020C0197F8F36A9F0803761
:100B500020F4883509F0AEC00BC0803721F088370B
:100B600009F0A8C001C0106114FF09C0146007C0DB
:100B700014FF08C0166006C028E030E005C020E180
:100B800030E002C020E132E0F50117FF07C06081CC
:100B900071818281938144E050E006C0608171815F
:100BA00080E090E042E050E0A40EB51EA2010E9459
:100BB000A606F82EF418012F0F7706FF09C00E7F46
:100BC000FE1430F404FF06C002FD04C00F7E02C014
:100BD0001F2D01C01E2D802F90E004FF0CC0FE01D0
:100BE000EF0DF11D2081203311F4097E09C002FFB1
:100BF00006C01E5F05C086789070009709F01F5FE1
:100C0000802E992403FD12C000FF0DC0EF2C1D158E
:100C100050F4ED0CE11A1D2D06C080E290E0B30106
:100C20000E947A061F5F1D15C0F304C01D1510F445
:100C3000D11A01C0DD2484FE0FC080E390E0B3012F
:100C40000E947A0682FE1FC081FE03C088E590E004
:100C500010C088E790E00DC0C401867890700097BE
:100C600091F081FC02C080E201C08BE207FD8DE2C1
:100C700090E0B3010E947A0606C080E390E0B301E1
:100C80000E947A06EA94FE14C0F3FA94F201EF0D82
:100C9000F11D808190E0B3010E947A06FF20A9F740
:100CA00006C080E290E0B3010E947A06DA94DD206B
:100CB000C1F740CEF3018681978102C08FEF9FEF8D
:100CC0002D96E2E10C942007FC01059061507040E4
:100CD0000110D8F7809590958E0F9F1F0895FC0105
:100CE0006150704001900110D8F7809590958E0F5B
:100CF0009F1F08950F931F93CF93DF938C01EB01F8
:100D00008B8181FF1BC082FF0DC02E813F818C81B2
:100D10009D812817390764F4E881F9810193F983EB
:100D2000E88306C0E885F985802F0995009731F49E
:100D30008E819F8101969F838E8302C00FEF1FEFEC
:100D4000C801DF91CF911F910F910895FA01AA2751
:100D5000283051F1203181F1E8946F936E7F6E5FFE
:100D60007F4F8F4F9F4FAF4FB1E03ED0B4E03CD0AC
:100D7000670F781F891F9A1FA11D680F791F8A1F8F
:100D8000911DA11D6A0F711D811D911DA11D20D0F6
:100D900009F468943F912AE0269F11243019305DB0
:100DA0003193DEF6CF010895462F4770405D4193A1
:100DB000B3E00FD0C9F7F6CF462F4F70405D4A33EE
:100DC00018F0495D31FD4052419302D0A9F7EACFB6
:100DD000B4E0A6959795879577956795BA95C9F7E5
:100DE00000976105710508959B01AC010A2E0694D8
:100DF0005795479537952795BA95C9F7620F731F91
:100E0000841F951FA01D08952F923F924F925F92CD
:100E10006F927F928F929F92AF92BF92CF92DF920A
:100E2000EF92FF920F931F93CF93DF93CDB7DEB76F
:100E3000CA1BDB0B0FB6F894DEBF0FBECDBF099403
:100E40002A88398848885F846E847D848C849B845A
:100E5000AA84B984C884DF80EE80FD800C811B8168
:100E6000AA81B981CE0FD11D0FB6F894DEBF0FBE97
:0A0E7000CDBFED010895F894FFCF07
:100E7A002D2052656164696E6720746F67676C65BF
:100E8A006420256420282564290A002B20537461D4
:100E9A00746520746F67676C656420256420282553
:100EAA0064290A0000000001000000000000C200DE
:100EBA000000000000020000000096000000000090
:00000001FF
